{
  "contractName": "Votacion",
  "abi": [
    {
      "inputs": [
        {
          "internalType": "address",
          "name": "",
          "type": "address"
        }
      ],
      "name": "verificarvotico",
      "outputs": [
        {
          "internalType": "bool",
          "name": "",
          "type": "bool"
        }
      ],
      "stateMutability": "view",
      "type": "function",
      "constant": true
    },
    {
      "inputs": [
        {
          "internalType": "address",
          "name": "usuario",
          "type": "address"
        },
        {
          "internalType": "uint256",
          "name": "id",
          "type": "uint256"
        }
      ],
      "name": "votar",
      "outputs": [
        {
          "internalType": "bool",
          "name": "",
          "type": "bool"
        }
      ],
      "stateMutability": "nonpayable",
      "type": "function"
    },
    {
      "inputs": [
        {
          "internalType": "address",
          "name": "usuario",
          "type": "address"
        }
      ],
      "name": "verificarVoto",
      "outputs": [
        {
          "internalType": "bool",
          "name": "",
          "type": "bool"
        }
      ],
      "stateMutability": "view",
      "type": "function",
      "constant": true
    },
    {
      "inputs": [
        {
          "internalType": "uint256",
          "name": "id",
          "type": "uint256"
        }
      ],
      "name": "getVotos",
      "outputs": [
        {
          "internalType": "uint256",
          "name": "",
          "type": "uint256"
        }
      ],
      "stateMutability": "view",
      "type": "function",
      "constant": true
    },
    {
      "inputs": [
        {
          "internalType": "uint256",
          "name": "id",
          "type": "uint256"
        }
      ],
      "name": "getOpciones",
      "outputs": [
        {
          "internalType": "string",
          "name": "",
          "type": "string"
        }
      ],
      "stateMutability": "view",
      "type": "function",
      "constant": true
    },
    {
      "inputs": [],
      "name": "reiniciarVotos",
      "outputs": [
        {
          "internalType": "bool",
          "name": "",
          "type": "bool"
        }
      ],
      "stateMutability": "nonpayable",
      "type": "function"
    }
  ],
  "bytecode": "0x608060405260405180606001604052806040518060400160405280600b81526020017f6d756e6965717569746f3100000000000000000000000000000000000000000081525081526020016040518060400160405280600881526020017f6d756e6965636f3200000000000000000000000000000000000000000000000081525081526020016040518060400160405280600881526020017f6d756e6965636f3300000000000000000000000000000000000000000000000081525081525060009060036100ce929190610119565b506040518060600160405280600060ff168152602001600060ff168152602001600060ff168152506001906003610106929190610179565b5034801561011357600080fd5b506102d4565b828054828255906000526020600020908101928215610168579160200282015b828111156101675782518290805190602001906101579291906101cb565b5091602001919060010190610139565b5b509050610175919061024b565b5090565b8280548282559060005260206000209081019282156101ba579160200282015b828111156101b9578251829060ff16905591602001919060010190610199565b5b5090506101c7919061026f565b5090565b828054600181600116156101000203166002900490600052602060002090601f016020900481019282601f1061020c57805160ff191683800117855561023a565b8280016001018555821561023a579182015b8281111561023957825182559160200191906001019061021e565b5b509050610247919061026f565b5090565b5b8082111561026b5760008181610262919061028c565b5060010161024c565b5090565b5b80821115610288576000816000905550600101610270565b5090565b50805460018160011615610100020316600290046000825580601f106102b257506102d1565b601f0160209004906000526020600020908101906102d0919061026f565b5b50565b6104f7806102e36000396000f3fe608060405234801561001057600080fd5b50600436106100615760003560e01c8062be7baa1461006657806331aed419146100c0578063399c224c146101675780636a8eab1c14610187578063835c4329146101e1578063f485c67914610245575b600080fd5b6100a86004803603602081101561007c57600080fd5b81019080803573ffffffffffffffffffffffffffffffffffffffff169060200190929190505050610287565b60405180821515815260200191505060405180910390f35b6100ec600480360360208110156100d657600080fd5b81019080803590602001909291905050506102a7565b6040518080602001828103825283818151815260200191508051906020019080838360005b8381101561012c578082015181840152602081019050610111565b50505050905090810190601f1680156101595780820380516001836020036101000a031916815260200191505b509250505060405180910390f35b61016f610360565b60405180821515815260200191505060405180910390f35b6101c96004803603602081101561019d57600080fd5b81019080803573ffffffffffffffffffffffffffffffffffffffff1690602001909291905050506103c1565b60405180821515815260200191505060405180910390f35b61022d600480360360408110156101f757600080fd5b81019080803573ffffffffffffffffffffffffffffffffffffffff16906020019092919080359060200190929190505050610417565b60405180821515815260200191505060405180910390f35b6102716004803603602081101561025b57600080fd5b81019080803590602001909291905050506104a0565b6040518082815260200191505060405180910390f35b60026020528060005260406000206000915054906101000a900460ff1681565b6060600082815481106102b657fe5b906000526020600020018054600181600116156101000203166002900480601f0160208091040260200160405190810160405280929190818152602001828054600181600116156101000203166002900480156103545780601f1061032957610100808354040283529160200191610354565b820191906000526020600020905b81548152906001019060200180831161033757829003601f168201915b50505050509050919050565b600080600160008154811061037157fe5b906000526020600020018190555060006001808154811061038e57fe5b9060005260206000200181905550600060016002815481106103ac57fe5b90600052602060002001819055506001905090565b6000600260008373ffffffffffffffffffffffffffffffffffffffff1673ffffffffffffffffffffffffffffffffffffffff16815260200190815260200160002060009054906101000a900460ff169050919050565b6000600180838154811061042757fe5b90600052602060002001600082825401925050819055506001600260008573ffffffffffffffffffffffffffffffffffffffff1673ffffffffffffffffffffffffffffffffffffffff16815260200190815260200160002060006101000a81548160ff0219169083151502179055506001905092915050565b6000600182815481106104af57fe5b9060005260206000200154905091905056fea264697066735822122023507d7c5444b35cff0c9ca6e44bda8e848a475c73b686142f5a0e8e879e9b4b64736f6c634300060c0033",
  "immutableReferences": {},
  "source": "// SPDX-License-Identifier: MIT\npragma solidity  >=0.4.22 <0.9.0;\n\ncontract Votacion {\n\n  string[] opciones = [\"muniequito1\",\"munieco2\",\"munieco3\"];\n  uint[] cantVotos = [0,0,0];\n\n  mapping(address => bool) public verificarvotico;\n\n  function votar(address usuario, uint id) public returns (bool) {\n\n    cantVotos[id] +=1;\n    verificarvotico[usuario]=true;\n    return true;\n  }\n\n  function verificarVoto(address usuario) public view returns (bool) {\n    return verificarvotico[usuario];    \n  }\n\n  function getVotos(uint id) public view returns (uint) {\n    return cantVotos[id];\n  }\n\n  function getOpciones(uint id)public view returns (string memory) {\n      return opciones[id];\n  }\n\n  function reiniciarVotos()public returns (bool){\n    cantVotos[0]=0;\n    cantVotos[1]=0;\n    cantVotos[2]=0;\n      \n    return true;\n\n  }\n\n}\n",
  "sourcePath": "C:\\Users\\lenovo\\Documents\\Proyectos 2020-1\\proyectoredes3\\contracts\\Votacion.sol",
  "compiler": {
    "name": "solc",
    "version": "0.6.12+commit.27d51765.Emscripten.clang"
  },
  "schemaVersion": "3.4.3",
  "updatedAt": "2021-10-08T09:59:33.420Z",
  "networkType": "ethereum",
  "devdoc": {
    "kind": "dev",
    "methods": {},
    "version": 1
  },
  "userdoc": {
    "kind": "user",
    "methods": {},
    "version": 1
  }
}